:100000000C942A000C9447000C9447000C94470071
:100010000C9447000C9447000C9447000C94470044
:100020000C9447000C9447000C9447000C94470034
:100030000C9449000C9447000C9447000C94470022
:100040000C9447000C9447000C9447000C94470014
:100050000C94470011241FBECFE5D4E0DEBFCDBF16
:1000600010E0A0E6B0E0E4E1F8E002C005900D92F7
:10007000A436B107D9F710E0A4E6B0E001C01D92A4
:10008000A636B107E1F70E94E1030C9408040C9432
:1000900000001F920F920FB60F9211242F933F93DF
:1000A0004F935F936F937F938F939F93AF93BF9380
:1000B000EF93FF93E0916400F09165000995FF9143
:1000C000EF91BF91AF919F918F917F916F915F91D0
:1000D0004F913F912F910F900FBE0F901F90189549
:1000E000FB018FB9779BFECF8FB1808381E00895AC
:1000F0008FB9779BFECF81E00895FC018FB180839B
:1001000081E00895909365008093640081E00895F4
:100110008FB780688FBF81E008958FB9779BFECF3E
:1001200008958FEF8FB9779BFECF8FB108950F930E
:100130001F938C0181E066E041E00E947C0181E038
:1001400065E040E00E947C0181E067E040E00E94C1
:100150007C0181E064E040E00E947C011DB89DB11B
:100160009064F8018081879588278795892B9181F4
:100170009295990F907E982B2281220F220F220FA9
:10018000292B8381880F880F822B8DB981E01F91E5
:100190000F9108950F931F938C0181E066E040E07A
:1001A0000E947C0181E065E041E00E947C0181E0E9
:1001B00067E041E00E947C0181E064E041E00E9450
:1001C0007C019DB1F80134819065832F8370982B59
:1001D0008081879588278795892B91819295990FA2
:1001E000907E982B2281220F220F220F292B8381B0
:1001F000880F880F822B8DB98EB136953695382BA6
:100200003EB981E01F910F91089511B884E086BF37
:1002100008959B01AC0160E074E284EF90E00E94DD
:10022000E603205130404040504056954795379561
:10023000279520B9089584EA86BF06B607FEFDCF4C
:1002400081B190E0887F883009F091E0892F08958E
:1002500084EA86BF06B607FEFDCF81B1887F803174
:1002600011F082E0089580E0089583B984E886BFA4
:1002700006B607FEFDCF81B1887F883111F083E09B
:10028000089580E00895816083B984E886BF06B64A
:1002900007FEFDCF81B1887F803411F083E008959F
:1002A00080E0089583B984E886BF06B607FEFDCFD7
:1002B00081B1887F883211F084E0089580E008954C
:1002C000FC0184EC86BF06B607FEFDCF83B18083B8
:1002D00081B1887F803511F084E0089580E0089531
:1002E00084E986BF06B607FCFDCF81B1887F11F493
:1002F00085E0089580E008954423B9F4813009F43D
:100300003CC0813068F1823009F450C08330D9F4A8
:1003100021B381E090E002C0880F991F6A95E2F74F
:100320008095822381BB81E00895413011F081E006
:100330000895813079F1813040F0823009F44FC066
:10034000833009F440C080E008952AB381E090E052
:1003500002C0880F991F6A95E2F7282B2ABBE7CFC6
:100360002AB381E090E002C0880F991F6A95E2F7F6
:10037000809582238ABB81E0089527B381E090E0D5
:1003800002C0880F991F6A95E2F78095822387BB88
:1003900081E0089527B381E090E002C0880F991FA3
:1003A0006A95E2F7282B27BB81E0089524B381E00A
:1003B00090E002C0880F991F6A95E2F7809582232A
:1003C00084BB81E0089521B381E090E002C0880FF2
:1003D000991F6A95E2F7282B21BB81E0089524B389
:1003E00081E090E002C0880F991F6A95E2F7282B00
:1003F00024BB81E008954423B9F4813009F43CC062
:10040000813068F1823009F450C08330D9F422B3CE
:1004100081E090E002C0880F991F6A95E2F780950D
:10042000822382BB81E00895413011F081E008957C
:10043000813079F1813040F0823009F44FC083304F
:1004400009F440C080E008952BB381E090E002C041
:10045000880F991F6A95E2F7282B2BBBE7CF2BB3A8
:1004600081E090E002C0880F991F6A95E2F78095BD
:1004700082238BBB81E0089528B381E090E002C025
:10048000880F991F6A95E2F78095822388BB81E0E7
:10049000089528B381E090E002C0880F991F6A9503
:1004A000E2F7282B28BB81E0089525B381E090E096
:1004B00002C0880F991F6A95E2F78095822385BB59
:1004C00081E0089522B381E090E002C0880F991F77
:1004D0006A95E2F7282B22BB81E0089525B381E0DD
:1004E00090E002C0880F991F6A95E2F7282B25BB80
:1004F00081E00895813001F1813030F0823041F1A6
:10050000833071F080E008952BB381E090E002C069
:10051000880F991F6A95E2F728272BBB81E0089581
:1005200022B381E090E002C0880F991F6A95E2F73C
:10053000282722BB81E0089528B381E090E002C023
:10054000880F991F6A95E2F7282728BB81E0089554
:1005500025B381E090E002C0880F991F6A95E2F709
:10056000282725BB81E00895FA018130F1F0813020
:1005700058F489B390E002C0959587956A95E2F7A3
:100580008170808381E00895823089F0833011F09A
:1005900080E0089580B390E002C0959587956A95B4
:1005A000E2F78170808381E0089586B3E3CF83B35F
:1005B000E1CF813001F1813030F0823041F1833080
:1005C00071F080E008952BB381E090E002C0880FC5
:1005D000991F6A95E2F7282B2BBB81E0089522B37F
:1005E00081E090E002C0880F991F6A95E2F7282BFE
:1005F00022BB81E0089528B381E090E002C0880F1B
:10060000991F6A95E2F7282B28BB81E0089525B34E
:1006100081E090E002C0880F991F6A95E2F7282BCD
:1006200025BB81E0089580E066E00E947A0208958B
:1006300080E066E040E00E94FB01089580E066E013
:1006400041E00E94FB01089580E066E041E00E94E5
:100650007C01089580E064E00E947A02089580E0C1
:1006600064E040E00E94FB01089580E064E041E026
:100670000E94FB01089580E064E041E00E947C015B
:1006800008951F93DF93CF930F92CDB7DEB7182F46
:1006900019820E941B0180EA0E943501812F0E946D
:1006A00052010E94280180EA0E944301CE01019676
:1006B0000E9460010E94700180E29EE40197F1F7C0
:1006C00089810F90CF91DF911F9108950F931F9310
:1006D000182F062F0E941B0180EA0E943501812FEE
:1006E0000E945201802F0E9452010E94700180E2FC
:1006F0009EE40197F1F71F910F91089560E87AE168
:1007000086E090E00E9409010E940501089580E0C2
:1007100065E00E947A0281E0089580E065E040E0B3
:100720000E94FB0181E0089580E065E041E00E94C5
:10073000FB0181E0089580E065E041E00E947C01DA
:1007400081E0089581E00895DF93CF930F92CDB7B4
:10075000DEB71982CE0101960E947D0069816F3F4C
:10076000B1F06D3F49F080E10E9466030E942A03C8
:100770000F90CF91DF91089580E10E9441030E9484
:1007800078000E9487030F90CF91DF9108950E9417
:1007900013030F90CF91DF9108950E949B030E9455
:1007A00024030E943B030E947E030E94880080E68F
:1007B00090E00E94970084EA93E00E94820081E02A
:1007C00008950E94CD030E94A203FDCFA1E21A2E3C
:1007D000AA1BBB1BFD010DC0AA1FBB1FEE1FFF1FE5
:1007E000A217B307E407F50720F0A21BB30BE40B35
:1007F000F50B661F771F881F991F1A9469F760957C
:100800007095809590959B01AC01BD01CF01089535
:04081000F894FFCF8A
:0408140001000000DF
:00000001FF
