:100000000C942A000C9447000C9447000C94470071
:100010000C9447000C9447000C9447000C94470044
:100020000C9447000C9447000C9447000C94470034
:100030000C9424110C9447000C9447000C94470036
:100040000C9447000C9447000C9447000C94470014
:100050000C94470011241FBECFE5D8E0DEBFCDBF12
:1000600012E0A0E6B0E0E0ECFCE302C005900D92E7
:10007000A43BB107D9F712E0A4EBB2E001C01D9296
:10008000A23CB107E1F70E94BA1D0C945E1E0C94CD
:100090000000A2E7B0E0EFE4F0E00C94271E982EF9
:1000A000892E712E88E0FE013196DF01682E1D92A7
:1000B0006A94E9F729833A834B835C836D837E835B
:1000C0009F829887FE013996DF011D928A95E9F794
:1000D000A986BA86CB86DC86ED86FE860F87188BCE
:1000E0008D819E81AF81B885B7FD07C0E1961CAEBA
:1000F0001DAE1EAE1FAEE19764C0219581E01216C1
:1001000008F080E0319591E0131608F090E0B32FED
:10011000B81B81E03B1708F080E0982B419531E057
:10012000141608F030E0A42FA91B81E04A1708F04C
:1001300080E0382B519591E0151608F090E0F52FEE
:10014000F31B81E05F1708F080E0982B619531E0A8
:10015000161608F030E0E62FE91B81E06E1708F074
:1001600080E0382B719541E0171608F040E0572FDA
:10017000531B81E0751708F080E0482B892D81958D
:1001800091E0181608F090E0682E641A462D31E0D0
:10019000861508F030E0932B882D8195891B2983E3
:1001A000BA83AB83FC83ED835E834F8388872FEF15
:1001B0003FEF4FEF5FEFE1962CAF3DAF4EAF5FAF3C
:1001C000E1978D859E85AF85B889B7FF6AC0E196B6
:1001D0004CAD5DAD6EAD7FADE197409550956095AE
:1001E0007095E1964CAF5DAF6EAF7FAFE197A19494
:1001F00081E01A1408F080E0B19491E01B1408F03B
:1002000090E06B2D681B81E0B61608F080E0982B1B
:10021000C19421E01C1408F020E05C2D591B81E002
:10022000C51608F080E0282BD19491E01D1408F049
:1002300090E04D2D421B81E0D41608F080E0982B11
:10024000E19421E01E1408F020E03E2D391B81E0EE
:10025000E31608F080E0282BF19491E01F1408F0D9
:1002600090E07F2D721B272F81E0F71608F080E0C9
:10027000982B019511E0101608F010E0802F891BD3
:10028000982F81E0091708F080E0182B872D8195C1
:10029000811BA9866A875B874C873D872E879F874E
:1002A000888B99812A813B814C815D816E817F8120
:1002B000A885B9851A850B85FC84ED84DE84CF84FE
:1002C000B88888E0E1E18E2E912C8C0E9D1EF40101
:1002D000682E11926A94E9F7998B2A8B3B8B4C8B91
:1002E0005D8B6E8B7F8BA88F9E01275E3F4FF90140
:1002F00011928A95E9F7B98F1A8F0B8FFC8EED8ECC
:10030000DE8ECF8EB8A2298C3A8C4B8C5C8CED8C17
:10031000FE8C0F8D18A169887A888B889C8821961D
:100320006CAE7DAE8EAE9FAE21976D887E888F8835
:10033000988CE114F1040105110509F0D9C3621488
:1003400073048404950408F057C100E0201600E00F
:10035000300601E0400600E0500688F41FEF211649
:1003600031044104510439F030F048E0E42EF12C1E
:10037000012D112D18C0EE24FF24870114C020E0A8
:10038000221620E0320620E0420621E0520630F03C
:1003900038E1E32EF12C012D112D05C020E1E22ED4
:1003A000F12C012D112DD201C1010E2C04C0B695E6
:1003B000A795979587950A94D2F788599E4FDC01A7
:1003C0002C9180E290E0A0E0B0E08E199F09A00B94
:1003D000B10B7C018D01E21AF10801091109E11448
:1003E000F10401051105D1F10E2C04C0220C331CBF
:1003F000441C551C0A94D2F7A40193010E2C04C08E
:10040000220F331F441F551F0A94D2F780E290E059
:100410008E199F0921966CAC7DAC8EAC9FAC219758
:1004200004C096948794779467948A95D2F7622A49
:10043000732A842A952A2196ACACBDACCEACDFAC35
:10044000219704C0AA0CBB1CCC1CDD1CEA94D2F77B
:100450002196ACAEBDAECEAEDFAE21976201EE24EA
:10046000FF242996CCAEDDAEEEAEFFAE2997920109
:100470008101207030702D960CAF1DAF2EAF3FAFB5
:100480002D97C401B301A70196010E94E61D7B01CF
:100490008C01C401B30129962CAD3DAD4EAD5FADCD
:1004A00029970E94E61DC901DA013C014D01C401F2
:1004B000B3012D962CAD3DAD4EAD5FAD2D970E9495
:1004C000081E9B01AC018701FF24EE242196ACACF1
:1004D000BDACCEACDFAC2197C601AA27BB27570124
:1004E0006801A82AB92ACA2ADB2AA216B306C406BA
:1004F000D506E0F408946108710881089108A20CFF
:10050000B31CC41CD51CA214B304C404D50470F0DD
:10051000A216B306C406D50648F40894610871080B
:1005200081089108A20CB31CC41CD51CA21AB30AE2
:10053000C40AD50AC601B50129962CAD3DAD4EAD14
:100540005FAD29970E94E61D7B018C01C601B501B4
:1005500029962CAD3DAD4EAD5FAD29970E94E61DAD
:10056000C901DA015C016D01C601B5012D962CAD02
:100570003DAD4EAD5FAD2D970E94081E9B01AC01B5
:100580008701FF24EE2421968CAD9DADAEADBFADAD
:100590002197A070B070E82AF92A0A2B1B2BE216CB
:1005A000F30604071507C0F40894A108B108C108B0
:1005B000D108E20CF31C041D151DE214F30404051C
:1005C000150550F0E216F3060407150728F4089401
:1005D000A108B108C108D108D3019927882786014D
:1005E0007501E82AF92A0A2B1B2B2596ECAEFDAEE5
:1005F0000EAF1FAF2597EBC4211431044104510401
:1006000071F461E070E080E090E020E030E040E0F4
:1006100050E00E94E61DC901DA011C012D0100E035
:10062000201600E0300601E0400600E0500688F4A5
:100630001FEF211631044104510431F028F048E045
:1006400050E060E070E017C040E050E060E070E033
:1006500012C020E0221620E0320620E0420621E00F
:10066000520628F048E150E060E070E004C040E14C
:1006700050E060E070E0D201C101042E04C0B695E4
:10068000A795979587950A94D2F788599E4FDC01D4
:100690002C91E0E2EE2EF12C012D112DD801C70195
:1006A000841B950BA60BB70B821B9109A109B109FD
:1006B0000097A105B10561F464015301A218B308C4
:1006C000C408D50831E0632E712C812C912C24C1F3
:1006D000E3968FAFE397082E04C0220C331C441C12
:1006E000551C0A94D2F7EE2DE81B640153010E2E1F
:1006F00004C0D694C794B794A7940A94D2F7A401DF
:100700009301E3960FACE39704C0220F331F441FFD
:10071000551F0A94D2F721966CAC7DAC8EAC9FAC81
:1007200021970E2E04C096948794779467940A9428
:10073000D2F784017301E22AF32A042B152BE9AEC8
:10074000FAAE0BAF1CAF32018824992492018101CB
:100750002070307061960CAF1DAF2EAF3FAF619728
:10076000C601B501A40193010E94E61D7B018C0125
:10077000C601B501A40193010E94E61DC901DA0179
:1007800065968CAF9DAFAEAFBFAF6597BC01CD0195
:1007900061962CAD3DAD4EAD5FAD61970E94081ED8
:1007A0009B01AC018701FF24EE24A9ACBAACCBAC11
:1007B000DCACC601AA27BB275C016D01AE28BF28AF
:1007C000C02AD12AA216B306C406D50660F56596DE
:1007D0006CAD7DAD8EAD9FAD659761507040804032
:1007E000904065966CAF7DAF8EAF9FAF6597A20CC2
:1007F000B31CC41CD51CA214B304C404D50498F0C3
:10080000A216B306C406D50670F46150704080404D
:10081000904065966CAF7DAF8EAF9FAF6597A20C91
:10082000B31CC41CD51CA21AB30AC40AD50AC6013B
:10083000B501A40193010E94E61D7B018C01C60154
:10084000B501A40193010E94E61DC901DA013C0132
:100850004D01C401B30161962CAD3DAD4EAD5FAD10
:1008600061970E94081E9B01AC018701FF24EE24C2
:1008700089AD9AADABADBCADA070B0705701680149
:10088000A82AB92ACA2ADB2AA216B306C406D506A4
:10089000E0F408946108710881089108A20CB31C67
:1008A000C41CD51CA214B304C404D50470F0A21651
:1008B000B306C406D50648F4089461087108810897
:1008C0009108A20CB31CC41CD51C21968CAD9DAD07
:1008D000AEADBFAD2197E3960FACE39704C0880F90
:1008E000991FAA1FBB1F0A94D2F721968CAF9DAF08
:1008F000AEAFBFAF2197A21AB30AC40AD50A659654
:10090000ECACFDAC0EAD1FAD6597D70199278827DC
:10091000682A792A8A2A9B2A820122273327699604
:100920000CAF1DAF2EAF3FAF6997A2019101407090
:1009300050706D962CAF3DAF4EAF5FAF6D97C60157
:10094000B50169962CAD3DAD4EAD5FAD69970E9486
:10095000E61D7B018C01C601B50169962CAD3DAD4C
:100960004EAD5FAD69970E94E61DC901DA01A196FF
:100970008CAF9DAFAEAFBFAFA197BC01CD016D965F
:100980002CAD3DAD4EAD5FAD6D970E94081E9B0135
:10099000AC018701FF24EE242196ACACBDACCEACFB
:1009A000DFAC2197C601AA27BB2757016801A82AF7
:1009B000B92ACA2ADB2AA216B306C406D50660F5F0
:1009C000A1966CAD7DAD8EAD9FADA197615070408D
:1009D00080409040A1966CAF7DAF8EAF9FAFA19746
:1009E000A20CB31CC41CD51CA214B304C404D504AB
:1009F00098F0A216B306C406D50670F46150704094
:100A000080409040A1966CAF7DAF8EAF9FAFA19715
:100A1000A20CB31CC41CD51CA21AB30AC40AD50A62
:100A2000C601B50169962CAD3DAD4EAD5FAD699780
:100A30000E94E61D7B018C01C601B50169962CADB3
:100A40003DAD4EAD5FAD69970E94E61DC901DA016B
:100A50005C016D01C601B5016D962CAD3DAD4EAD8D
:100A60005FAD6D970E94081E9B01AC018701FF24BA
:100A7000EE2421968CAD9DADAEADBFAD2197A0709B
:100A8000B070E82AF92A0A2B1B2BE216F30604079A
:100A90001507C0F40894A108B108C108D108E20CF8
:100AA000F31C041D151DE214F3040405150550F094
:100AB000E216F3060407150728F40894A108B10804
:100AC000C108D108A196ECACFDAC0EAD1FADA1974D
:100AD000D7019927882796018501082B192B2A2BE6
:100AE0003B2B25960CAF1DAF2EAF3FAF259772C2A3
:100AF0006E147F048006910608F45FC220E0E216BF
:100B000020E0F20621E0020720E0120788F43FEF20
:100B1000E316F1040105110531F028F048E050E03A
:100B200060E070E017C040E050E060E070E012C0AC
:100B300040E0E41640E0F40640E0040741E014071A
:100B400028F048E150E060E070E004C040E150E08F
:100B500060E070E0D801C701042E04C0B695A795E7
:100B6000979587950A94D2F788599E4FDC012C916E
:100B700030E2A32EB12CC12CD12CD601C501841B8F
:100B8000950BA60BB70B821B9109A109B109009720
:100B9000A105B10599F4E614F7040805190508F450
:100BA000FEC121966CAC7DAC8EAC9FAC21976214DB
:100BB00073048404950408F0F2C1FFC1E2968FAF7C
:100BC000E297082E04C0EE0CFF1C001F111F0A94B0
:100BD000D2F76A2D681BD201C101062E04C0B6955A
:100BE000A795979587950A94D2F75C016D01AE2879
:100BF000BF28C02AD12AADAABEAACFAAD8AE7201F8
:100C00006101E2960FACE29704C0CC0CDD1CEE1C37
:100C1000FF1C0A94D2F7C9AADAAAEBAAFCAA6401BB
:100C20005301062E04C0D694C794B794A7940A948F
:100C3000D2F7D401C301E2960FACE29704C0880F4B
:100C4000991FAA1FBB1F0A94D2F72196ECACFDACEA
:100C50000EAD1FAD219704C016950795F794E79444
:100C60006A95D2F737014801682A792A8A2A9B2A8D
:100C70006DA67EA68FA698AAEDA8FEA80FA918AD0E
:100C80003801882499249801870120703070A59636
:100C90000CAF1DAF2EAF3FAFA597C601B501A401A4
:100CA00093010E94E61D7B018C01C601B501A401E0
:100CB00093010E94E61DC901DA011C012D01C20148
:100CC000B101A5962CAD3DAD4EAD5FADA5970E948F
:100CD000081E9B01AC018701FF24EE24ADA4BEA435
:100CE000CFA4D8A8C601AA27BB2757016801A82A04
:100CF000B92ACA2ADB2AA216B306C406D50600F50D
:100D000008942108310841085108EDA8FEA80FA950
:100D100018ADAE0CBF1CC01ED11EAE14BF04C00661
:100D2000D10670F0A216B306C406D50648F408949E
:100D30002108310841085108AE0CBF1CC01ED11E4D
:100D4000A21AB30AC40AD50AC601B501A4019301C7
:100D50000E94E61D7B018C01C601B501A40193012F
:100D60000E94E61DC901DA013C014D01C401B30135
:100D7000A5962CAD3DAD4EAD5FADA5970E94081E6A
:100D80009B01AC018701FF24EE248DA59EA5AFA594
:100D9000B8A9A070B07057016801A82AB92ACA2A58
:100DA000DB2AA216B306C406D50600F5089461082E
:100DB0007108810891086DA97EA98FA998ADA60E2A
:100DC000B71EC81ED91EA616B706C806D90670F0EB
:100DD000A216B306C406D50648F408946108710843
:100DE00081089108A60EB71EC81ED91ED601C501DE
:100DF000821B930BA40BB50B89A79AA7ABA7BCA723
:100E0000D1019927882764015301A82AB92ACA2A3F
:100E1000DB2A2596ACAEBDAECEAEDFAE2597860101
:100E200075012FEF3FEF40E050E0E222F322042370
:100E30001523A60166277727AD964CAF5DAF6EAF41
:100E40007FAFAD97A9A8BAA8CBA8DCA86FEF7FEFBA
:100E500080E090E0A622B722C822D92289A99AA9C7
:100E6000ABA9BCA91D0144245524C801B701A601A2
:100E700095010E94081EA9966CAF7DAF8EAF9FAF03
:100E8000A997C801B701A20191010E94081E3B0168
:100E90004C01AD966CAD7DAD8EAD9FADAD97A6010D
:100EA00095010E94081E7B018C01AD966CAD7DAD55
:100EB0008EAD9FADAD97A20191010E94081E5B010E
:100EC0006C01A8019701260D371D481D591DA996D3
:100ED0006CAC7DAC8EAC9FACA997C401AA27BB2794
:100EE000280F391F4A1F5B1F2E153F05400751076A
:100EF00048F4E12CF12C61E0062F112DAE0CBF1C43
:100F0000C01ED11ECA01AA27BB27BC01CD016A0D94
:100F10007B1D8C1D9D1D69A47AA48BA49CA46616C0
:100F200077068806990650F16615770588059905B4
:100F300009F04DC0D90199278827A9962CAD3DAD60
:100F40004EAD5FADA99740705070820F931FA41FE4
:100F5000B51F21962CAD3DAD4EAD5FAD2197E2960C
:100F60000FACE29704C0220F331F441F551F0A9491
:100F7000D2F7281739074A075B0748F525960CADC5
:100F80001DAD2EAD3FAD25970150104020403040A3
:100F900025960CAF1DAF2EAF3FAF259718C0662426
:100FA0007724430121E030E040E050E025962CAF6B
:100FB0003DAF4EAF5FAF25970DC066247724430148
:100FC00025961CAE1DAE1EAE1FAE259703C066242F
:100FD00077244301FE01B19688E0DF011D928A95D6
:100FE000E9F72596ACACBDACCEACDFAC2597A9A299
:100FF000BAA2CBA2DCA26DA27EA28FA298A6229654
:101000002FAD22973AA14BA15CA1662D7EA1DFA056
:1010100098A5E196ECACFDAC0EAD1FADE197E114E7
:10102000F1040105110509F456C0219581E012165D
:1010300008F080E03195E1E0131608F0E0E0932E2F
:10104000981A81E0391508F080E0E82B4195F1E02D
:10105000141608F0F0E0A42EAE1A81E04A1508F04C
:1010600080E0F82B5195E1E0151608F0E0E0B52E90
:10107000BF1A81E05B1508F080E0E82B6195F1E094
:10108000161608F0F0E0A62FAE1B81E06A1708F0F4
:1010900080E0F82B7195E1E0171608F0E0E0C72E2C
:1010A000CF1A81E07C1508F080E0E82B8D2D81952A
:1010B000F1E0181608F0F0E0D82EDE1AE1E08D1508
:1010C00008F0E0E0FE2B892F8195392DA5016A2FCC
:1010D0007C2D982F9F1B8D2DCE58DF4FE2E10C9475
:1010E000431EA7E7B0E0E7E7F8E00C94271E982E30
:1010F000892E712E88E0FE013196DF01682E1D9247
:101100006A94E9F729833A834B835C836D837E83FA
:101110009F829887FE013996DF011D928A95E9F733
:10112000A986BA86CB86DC86ED86FE860F87188B6D
:101130008D819E81AF81B885B7FD07C0E1961CAE59
:101140001DAE1EAE1FAEE19764C0219581E0121660
:1011500008F080E0319591E0131608F090E0B32F8D
:10116000B81B81E03B1708F080E0982B419531E0F7
:10117000141608F030E0A42FA91B81E04A1708F0EC
:1011800080E0382B519591E0151608F090E0F52F8E
:10119000F31B81E05F1708F080E0982B619531E048
:1011A000161608F030E0E62FE91B81E06E1708F014
:1011B00080E0382B719541E0171608F040E0572F7A
:1011C000531B81E0751708F080E0482B892D81952D
:1011D00091E0181608F090E0682E641A462D31E070
:1011E000861508F030E0932B882D8195891B298383
:1011F000BA83AB83FC83ED835E834F8388872FEFB5
:101200003FEF4FEF5FEFE1962CAF3DAF4EAF5FAFDB
:10121000E1978D859E85AF85B889B7FF5AC0A194A7
:1012200081E01A1408F080E0B19491E01B1408F0FA
:1012300090E06B2D681B81E0B61608F080E0982BDB
:10124000C19421E01C1408F020E05C2D591B81E0C2
:10125000C51608F080E0282BD19491E01D1408F009
:1012600090E04D2D421B81E0D41608F080E0982BD1
:10127000E19421E01E1408F020E03E2D391B81E0AE
:10128000E31608F080E0282BF19491E01F1408F099
:1012900090E07F2D721B272F81E0F71608F080E089
:1012A000982B019511E0101608F010E0802F891B93
:1012B000982F81E0091708F080E0182B872D819581
:1012C000811BA9866A875B874C873D872E879F870E
:1012D000888B99812A813B814C815D816E817F81E0
:1012E000A885B9851A850B85FC84ED84DE84CF84BE
:1012F000B88888E0E9E18E2E912C8C0E9D1EF401B9
:10130000682E11926A94E9F7998F2A8F3B8F4C8F40
:101310005D8F6E8F7F8FA8A39E012F5D3F4FF901D8
:1013200011928A95E9F7B9A31AA30BA3FCA2EDA227
:10133000DEA2CFA2B8A629A03AA04BA05CA0ADA087
:10134000BEA0CFA0D8A4498D5A8D6B8D7C8DE5961B
:101350004FAFE597E6965FAFE697E7966FAFE797F3
:10136000E8967FAFE897E8966CAC7DAC8EAC9FAC0E
:10137000E8972D966CAE7DAE8EAE9FAE2D978D8D7F
:101380009E8D2F8D38A13C01490161966CAE7DAEDA
:101390008EAE9FAE6197A114B104C104D10409F0CF
:1013A00028C3621473048404950408F00EC100E09D
:1013B000201600E0300601E0400600E0500688F408
:1013C0001FEF211631044104510439F030F088E058
:1013D000E82EF12C012D112D18C0EE24FF248701D9
:1013E00014C020E0221620E0320620E0420621E070
:1013F000520630F0B8E1EB2EF12C012D112D05C075
:10140000A0E1EA2EF12C012D112DD201C1010E2CEB
:1014100004C0B695A795979587950A94D2F78859F1
:101420009E4FDC012C9180E290E0A0E0B0E08E19AC
:101430009F09A00BB10B5C016D01A21AB108C10894
:10144000D1086596ACAEBDAECEAEDFAE6597A11449
:10145000B104C104D10409F445C062966FAD62972E
:10146000062E04C0220C331C441C551C0A94D2F7CF
:10147000A4019301062E04C0220F331F441F551FE1
:101480000A94D2F780E290E08A199B09E896CCACE6
:10149000DDACEEACFFACE89704C0F694E794D794CB
:1014A000C7948A95D2F787017601E22AF32A042BA2
:1014B000152B6196ECAEFDAE0EAF1FAF6197E896AF
:1014C0000CAD1DAD2EAD3FADE89704C0000F111F50
:1014D000221F331F6A95D2F72D960CAF1DAF2EAF8A
:1014E0003FAF2D97320188249924A20191014070C9
:1014F000507069962CAF3DAF4EAF5FAF6997619664
:101500006CAD7DAD8EAD9FAD6197A40193010E943E
:10151000E61D7B018C0161966CAD7DAD8EAD9FADFE
:101520006197A40193010E94E61DCA01B901699661
:101530002CAD3DAD4EAD5FAD69970E94081E9B017D
:10154000AC018701FF24EE242D96ACACBDACCEAC33
:10155000DFAC2D97C601AA27BB2757016801A82A2F
:10156000B92ACA2ADB2AA216B306C406D50690F405
:10157000A20CB31CC41CD51CA214B304C404D5040F
:1015800048F0A216B306C406D50620F4A20CB31C7C
:10159000C41CD51CA21AB30AC40AD50AC601B501D7
:1015A000A40193010E94E61D7B018C01C601B501D7
:1015B000A40193010E94E61DCA01B90169962CADF0
:1015C0003DAD4EAD5FAD6997C8C1211431044104F2
:1015D000510471F461E070E080E090E020E030E0E0
:1015E00040E050E00E94E61DC901DA011C012D0116
:1015F00000E0201600E0300601E0400600E0500662
:1016000088F41FEF211631044104510439F030F001
:1016100068E0E62EF12C012D112D18C0EE24FF24D8
:10162000870114C020E0221620E0320620E04206A6
:1016300021E0520630F058E1E52EF12C012D112D5C
:1016400005C040E1E42EF12C012D112DD201C10184
:101650000E2C04C0B695A795979587950A94D2F756
:1016600088599E4FDC012C9130E2A32EB12CC12C65
:10167000D12CD601C5018E199F09A00BB10B7C019D
:101680008D01E21AF108010911096596ECAEFDAE73
:101690000EAF1FAF6597E114F1040105110539F490
:1016A00064015301A218B308C408D508ECC06296BF
:1016B000FFAC6297E496FFAEE4970F2C04C0220CB7
:1016C000331C441C551C0A94D2F78A2D8F196401CF
:1016D0005301082E04C0D694C794B794A7940A94D3
:1016E000D2F7A401930104C0220F331F441F551FDA
:1016F000FA94D2F7E8966CAC7DAC8EAC9FACE897D0
:1017000004C096948794779467948A95D2F784015D
:101710007301E22AF32A042B152B2996ECAEFDAEB9
:101720000EAF1FAF299732018824992492018101BD
:10173000207030706D960CAF1DAF2EAF3FAF6D9720
:10174000C601B501A40193010E94E61D7B018C0135
:10175000C601B501A40193010E94E61DCA01B901A9
:101760006D962CAD3DAD4EAD5FAD6D970E94081EE0
:101770009B01AC018701FF24EE242996ACACBDACE3
:10178000CEACDFAC2997C601AA27BB275C016D014F
:10179000AE28BF28C02AD12AA216B306C406D50691
:1017A00090F4A20CB31CC41CD51CA214B304C40432
:1017B000D50448F0A216B306C406D50620F4A20C40
:1017C000B31CC41CD51CA21AB30AC40AD50AC6018C
:1017D000B501A40193010E94E61D7B018C01C601A5
:1017E000B501A40193010E94E61DCA01B9016D96DD
:1017F0002CAD3DAD4EAD5FAD6D970E94081E9B01B7
:10180000AC018701FF24EE2429968CAD9DADAEADD1
:10181000BFAD2997A070B07057016801A82AB92AF6
:10182000CA2ADB2AA216B306C406D50690F4A20C77
:10183000B31CC41CD51CA214B304C404D50448F0C2
:10184000A216B306C406D50620F4A20CB31CC41C11
:10185000D51CE896ECACFDAC0EAD1FADE897E49658
:101860000FACE49704C0EE0CFF1C001F111F0A947C
:10187000D2F72D96ECAEFDAE0EAF1FAF2D97A21A8C
:10188000B30AC40AD50A320188249924920181013D
:1018900020703070A1960CAF1DAF2EAF3FAFA19757
:1018A000C601B501A40193010E94E61D7B018C01D4
:1018B000C601B501A40193010E94E61DCA01B90148
:1018C000A1962CAD3DAD4EAD5FADA1970E94081E17
:1018D0009B01AC018701FF24EE242D96ACACBDAC7E
:1018E000CEACDFAC2D97C601AA27BB2757016801F4
:1018F000A82AB92ACA2ADB2AA216B306C406D50624
:1019000090F4A20CB31CC41CD51CA214B304C404D0
:10191000D50448F0A216B306C406D50620F4A20CDE
:10192000B31CC41CD51CA21AB30AC40AD50AC6012A
:10193000B501A40193010E94E61D7B018C01C60143
:10194000B501A40193010E94E61DCA01B901A19647
:101950002CAD3DAD4EAD5FADA1970E94081E9B0121
:10196000AC018701FF24EE242D968CAD9DADAEAD6C
:10197000BFAD2D97A070B070E82AF92A0A2B1B2B57
:10198000E216F3060407150790F4E20CF31C041D9D
:10199000151DE214F3040405150548F0E216F306DC
:1019A0000407150720F4E20CF31C041D151DE21AB0
:1019B000F30A040B150BD801C70162960FAC6297AE
:1019C00004C0B695A795979587950A94D2F789A7ED
:1019D0009AA7ABA7BCA71DA61EA61FA618AA898BEF
:1019E0008AA58A8B8BA58B8B8CA58C8B8DA58D8BDB
:1019F0002FC36A147B048C049D0448F4498B5A8BD2
:101A00006B8B7C8B8D8B9E8B2F8B388F27C300E04D
:101A1000A01600E0B00601E0C00600E0D00688F4A1
:101A20001FEFA116B104C104D10439F030F028E051
:101A3000E22EF12C012D112D18C0EE24FF24870178
:101A400014C020E0A21620E0B20620E0C20621E089
:101A5000D20630F098E1E92EF12C012D112D05C0B0
:101A600080E1E82EF12C012D112DD601C5010E2C9F
:101A700004C0B695A795979587950A94D2F788598B
:101A80009E4FDC012C9180E290E0A0E0B0E08E1946
:101A90009F09A00BB10B821B9109A109B109009705
:101AA000A105B10509F059C0A614B704C804D904AA
:101AB00070F0E896ECACFDAC0EAD1FADE897E2140B
:101AC000F3040405150518F4D801C7012FC0E896E2
:101AD0008CAD9DADAEADBFADE89782199309A40959
:101AE000B509A40193012A193B094C095D09AA24EF
:101AF000BB246501E8966CAC7DAC8EAC9FACE897DE
:101B0000681679068A069B0628F411E0A12EB12CEE
:101B1000C12CD12C79018A01EA18FB080C091D0996
:101B20006196ECAEFDAE0EAF1FAF619789A79AA785
:101B3000ABA7BCA761960CAD1DAD2EAD3FAD6197B7
:101B40000DA71EA72FA738AB898B8AA58A8B8BA5DB
:101B50008B8B8CA58C8B0D8B7BC2E3968FAFE39721
:101B6000A6019501082E04C0220F331F441F551FE4
:101B70000A94D2F710E2181BE2961FAFE297D20147
:101B8000C101012E04C0B695A795979587950A9433
:101B9000D2F75C016D01A22AB32AC42AD52A259660
:101BA000ACAEBDAECEAEDFAE259772016101E3965D
:101BB0000FACE39704C0CC0CDD1CEE1CFF1C0A9498
:101BC000D2F72196CCAEDDAEEEAEFFAE219764012A
:101BD0005301012E04C0D694C794B794A7940A94D5
:101BE000D2F7A4019301E3960FACE39704C0220F50
:101BF000331F441F551F0A94D2F7E8968CAD9DAD54
:101C0000AEADBFADE89704C0B695A79597958795FB
:101C10001A95D2F77C018D01E22AF32A042B152BA9
:101C2000E9AEFAAE0BAF1CAFE8960CAD1DAD2EAD14
:101C30003FADE897E3960FACE39704C0000F111F88
:101C4000221F331F0A94D2F70DAB1EAB2FAB38AF58
:101C500025962CAD3DAD4EAD5FAD25973A0188245C
:101C6000992440705070A5962CAF3DAF4EAF5FAF3A
:101C7000A597C601B501A40193010E94E61D7B0151
:101C80008C01C601B501A40193010E94E61DC901A2
:101C9000DA011C012D01C201B101A5962CAD3DADAB
:101CA0004EAD5FADA5970E94081E9B01AC01870158
:101CB000FF24EE24A9ACBAACCBACDCACC601AA279D
:101CC000BB2757016801A82AB92ACA2ADB2AA2160B
:101CD000B306C406D50610F508942108310841085A
:101CE00051082596ECACFDAC0EAD1FAD2597AE0CA2
:101CF000BF1CC01ED11EAE14BF04C006D10670F0BA
:101D0000A216B306C406D50648F408942108310883
:101D100041085108AE0CBF1CC01ED11EA21AB30A46
:101D2000C40AD50AC601B501A40193010E94E61DAB
:101D30007B018C01C601B501A40193010E94E61D3F
:101D4000C901DA013C014D01C401B301A5962CADD6
:101D50003DAD4EAD5FADA5970E94081E9B01AC0145
:101D60008701FF24EE2489AD9AADABADBCADA07068
:101D7000B07057016801A82AB92ACA2ADB2AA2161C
:101D8000B306C406D50610F50894610871088108E9
:101D9000910825966CAD7DAD8EAD9FAD2597A60EB5
:101DA000B71EC81ED91EA616B706C806D90670F0FB
:101DB000A216B306C406D50648F408946108710853
:101DC00081089108A60EB71EC81ED91ED601C501EE
:101DD000821B930BA40BB50B89AB9AABABABBCAB23
:101DE000D1019927882784017301E82AF92A0A2B4F
:101DF0001B2B8FEFA82E8FEFB82EC12CD12CAE202D
:101E0000BF20C022D12278010027112721966CAC77
:101E10007DAC8EAC9FAC21972FEF3FEF40E050E0C0
:101E2000622273228422952221966CAD7DAD8EAD07
:101E30009FAD2197AC0166277727AD964CAF5DAF7C
:101E40006EAF7FAFAD97C601B501A40193010E94AB
:101E5000081EA9966CAF7DAF8EAF9FAFA997C60144
:101E6000B501AD962CAD3DAD4EAD5FADAD970E94C9
:101E7000081E1B012C01C801B701A40193010E9497
:101E8000081E5B016C01C801B701AD962CAD3DADDC
:101E90004EAD5FADAD970E94081E7B018C01A6017F
:101EA0009501220D331D441D551DA9966CAC7DACCA
:101EB0008EAC9FACA997C401AA27BB27280F391F56
:101EC0004A1F5B1F2A153B054C055D0548F4812C14
:101ED000912CE1E0AE2EB12CE80CF91C0A1D1B1D63
:101EE000CA01AA27BB2757016801A80EB91ECA1E3E
:101EF000DB1EA90133272227A9968CAD9DADAEAD7F
:101F0000BFADA997A070B070280F391F4A1F5B1F83
:101F1000E9A8FAA80BA91CA9EA14FB040C051D05E5
:101F200070F0AE14BF04C006D10689F56DA97EA974
:101F30008FA998AD621773078407950740F5DA01FA
:101F4000C90121966CAC7DAC8EAC9FAC21978619F3
:101F50009709A809B9092596ECACFDAC0EAD1FADEB
:101F60002597AE18BF08C00AD10AEE24FF248701C6
:101F7000281739074A075B0728F421E0E22EF12CE5
:101F8000012D112DAE18BF08C00AD10A02C0DA0116
:101F9000C9016DA87EA88FA898AC681A790A8A0A28
:101FA0009B0A09A91AA92BA93CA90A191B092C09E2
:101FB0003D09580169012224332421012DA93EA99C
:101FC0004FA958AD261537054805590528F481E075
:101FD000282E312C412C512C86017501E218F30872
:101FE00004091509A8019701E2960FACE29704C015
:101FF000220F331F441F551F0A94D2F7D401C30187
:10200000E3960FACE39704C0B695A795979587958F
:102010000A94D2F7282B392B4A2B5B2B29A73AA7F6
:102020004BA75CA7E3960FACE39704C01695079502
:10203000F794E7940A94D2F7EDA6FEA60FA718AB83
:10204000298B8AA58A8B8BA58B8B8CA58C8BED8A93
:102050008EA58E8B8FA58F8B88A9888FE1964CAD2E
:102060005DAD6EAD7FADE19741155105610571051F
:1020700009F467C089892A893B894C895D89AE89C1
:10208000BF89188DF82FF19591E01F1608F090E0A8
:10209000822F819521E0181608F020E0E82FE91B37
:1020A00091E08E1708F090E0292B832F819531E085
:1020B000181608F030E0782F721B91E0871708F0AF
:1020C00090E0392B842F819521E0181608F020E04C
:1020D000682F631B91E0861708F090E0292B852F6D
:1020E000819531E0181608F030E0582F521B91E02E
:1020F000851708F090E0392B8A2F819521E018167A
:1021000008F020E0482F431B91E0841708F090E08E
:10211000292B8B2F819591E0181608F090E0382F2D
:10212000321B21E0831708F020E0922B812F81954C
:10213000891BF98BEA8B7B8B6C8B5D8B4E8B3F8B7A
:10214000888F29893A894B895C896D897E898F8935
:10215000988DC958DF4FE2E10C94431E0895EBE2DD
:10216000F0E080818823ECF78CB108959B01AC01ED
:10217000220F331F441F551F220F331F441F551FAB
:10218000220F331F441F551F220F331F441F551F9B
:1021900060E074E284EF90E00E94E61D2150304040
:1021A00029B930BD08958CB9EBE2F0E0808186FF5B
:1021B000FDCF08950895DF93CF9300D0CDB7DEB75C
:1021C00019821A8283E060E040E00E94041283E0FA
:1021D00061E041E00E9404128981806889838A81DC
:1021E00080618A838A8188608A8389818F7B8983E1
:1021F00089818F7D898389818F7E89838981877F8A
:1022000089838A818B7F8A8389818460898389819C
:10221000826089838A818F778A838A818F7B8A8390
:102220008A818F7D8A83E0E4F0E090818981892B27
:102230008083EAE2F0E090818A81892B80830F908D
:102240000F90CF91DF9108951F920F920FB60F92CA
:1022500011242F933F934F935F936F937F938F93AB
:102260009F93AF93BF93EF93FF93E091C002F091E0
:10227000C1020995FF91EF91BF91AF919F918F910D
:102280007F916F915F914F913F912F910F900FBE72
:102290000F901F901895DB018FB9EEE2F0E080817E
:1022A0008823ECF78FB18C9381E008958FB9EEE22B
:1022B000F0E080818823ECF781E00895FC018FB184
:1022C000808381E008959093C1028093C00281E0F1
:1022D0000895EFE5F0E080818068808381E00895D3
:1022E0000E9456110895DF93CF930F92CDB7DEB7BA
:1022F00019828EEFBE016F5F7F4F0E944B11898163
:102300000F90CF91DF9108950F931F938C0181E07F
:1023100066E041E00E94041281E065E040E00E9436
:10232000041281E067E040E00E94041281E064E072
:1023300040E00E940412EDE2F0E01082908190648F
:10234000D8018C91879588278795892B11969C9128
:1023500011979295990F907E982B12962C91129727
:10236000220F220F220F292B13968C91880F880F92
:10237000822B808381E01F910F9108950F931F930B
:102380008C0181E066E040E00E94041281E065E09B
:1023900041E00E94041281E067E041E00E940412E3
:1023A00081E064E041E00E940412EDE2F0E09081FF
:1023B000D80114963C9114979065832F8370982BC5
:1023C0008C91879588278795892B11969C911197D9
:1023D0009295990F907E982B12962C911297220F1E
:1023E000220F220F292B13968C91880F880F822B96
:1023F0008083EEE2F0E0808136953695382B30838D
:1024000081E01F910F910895442329F0413009F490
:1024100048C081E008958130B9F0813030F08230D9
:1024200011F1833009F07EC02DC0EAE3F0E0208195
:1024300081E090E002C0880F991F6A95E2F78095CD
:102440008223808381E00895E7E3F0E0208181E04A
:1024500090E002C0880F991F6A95E2F78095822369
:10246000808381E00895E4E3F0E0208181E090E062
:1024700002C0880F991F6A95E2F7809582238083B6
:1024800081E00895E1E3F0E0208181E090E002C086
:10249000880F991F6A95E2F780958223808381E0F7
:1024A00008958130A9F0813028F08230F9F083302E
:1024B000C9F52AC0EAE3F0E0208181E090E002C0A3
:1024C000880F991F6A95E2F7282B208381E00895F1
:1024D000E7E3F0E0208181E090E002C0880F991FDF
:1024E0006A95E2F7282B208381E00895E4E3F0E089
:1024F000208181E090E002C0880F991F6A95E2F781
:10250000282B208381E00895E1E3F0E0208181E041
:1025100090E002C0880F991F6A95E2F7282B20836C
:1025200081E0089580E00895442329F0413009F4C2
:1025300048C081E008958130B9F0813030F08230B8
:1025400011F1833009F07EC02DC0EBE3F0E0208173
:1025500081E090E002C0880F991F6A95E2F78095AC
:102560008223808381E00895E8E3F0E0208181E028
:1025700090E002C0880F991F6A95E2F78095822348
:10258000808381E00895E5E3F0E0208181E090E040
:1025900002C0880F991F6A95E2F780958223808395
:1025A00081E00895E2E3F0E0208181E090E002C064
:1025B000880F991F6A95E2F780958223808381E0D6
:1025C00008958130A9F0813028F08230F9F083300D
:1025D000C9F52AC0EBE3F0E0208181E090E002C081
:1025E000880F991F6A95E2F7282B208381E00895D0
:1025F000E8E3F0E0208181E090E002C0880F991FBD
:102600006A95E2F7282B208381E00895E5E3F0E066
:10261000208181E090E002C0880F991F6A95E2F75F
:10262000282B208381E00895E2E3F0E0208181E01F
:1026300090E002C0880F991F6A95E2F7282B20834B
:1026400081E0089580E008958130B1F0813030F06C
:10265000823001F1833061F180E00895EBE3F0E036
:10266000208181E090E002C0880F991F6A95E2F70F
:102670002827208381E00895E8E3F0E0208181E0CD
:1026800090E002C0880F991F6A95E2F728272083FF
:1026900081E00895E5E3F0E0208181E090E002C070
:1026A000880F991F6A95E2F72827208381E0089513
:1026B000E2E3F0E0208181E090E002C0880F991F02
:1026C0006A95E2F72827208381E00895FA01813096
:1026D00099F0813030F08230D1F0833019F180E010
:1026E000089589B390E002C0959587956A95E2F7C1
:1026F0008170808381E0089586B390E002C0959553
:1027000087956A95E2F78170808381E0089583B3AD
:1027100090E002C0959587956A95E2F78170808375
:1027200081E0089580B390E002C0959587956A9501
:10273000E2F78170808381E008958130B1F08130CB
:1027400030F0823001F1833061F180E00895EBE3F5
:10275000F0E0208181E090E002C0880F991F6A9527
:10276000E2F7282B208381E00895E8E3F0E0208160
:1027700081E090E002C0880F991F6A95E2F7282B4C
:10278000208381E00895E5E3F0E0208181E090E09E
:1027900002C0880F991F6A95E2F7282B208381E0F9
:1027A0000895E2E3F0E0208181E090E002C0880F2C
:1027B000991F6A95E2F7282B208381E00895E7E2CC
:1027C000F0E080818F778083808180648083E6E27F
:1027D000F0E0808180688083808184608083808154
:1027E0008260808380818160808381E00895DB0145
:1027F000E7E2F0E09081907F90839081892B808345
:10280000E6E2F0E08081877F808380818F7D808316
:10281000808180648083808186FDFDCF84B195B105
:102820008D939C9381E0089580E066E00E942413DC
:10283000089580E066E040E00E949412089580E0F0
:1028400066E041E00E949412089580E066E041E075
:102850000E9404120895BC0180E00E94F7138111C8
:1028600081E008950E94DF13811181E00895BC0189
:1028700081E00E94F713811181E008950E94DF1327
:10288000811181E008950F931F93182F482F441F43
:102890004427441F81E064E00E949412412F429536
:1028A000469546954370417081E062E00E94941223
:1028B000412F429546954770417081E061E00E944A
:1028C0009412412F42954F70417081E060E00E9468
:1028D000941280E063E041E00E94941280E062E0A4
:1028E00041E00E94941205E0802F8A95F1F780E084
:1028F00062E040E00E94941280E293E00197F1F7D9
:10290000412F469546954695417081E064E00E94CE
:102910009412412F46954695417081E062E00E94F5
:102920009412412F4695417081E061E00E9494121B
:10293000117081E060E0412F0E94941280E062E01B
:1029400041E00E9494120A95F1F780E062E040E0D5
:102950000E94941280E49FE10197F1F781E01F91BA
:102960000F9108952F923F924F925F926F927F92B4
:102970008F929F92AF92BF92CF92DF92EF92FF928F
:102980000F931F93DF93CF93CDB7DEB76A970FB640
:10299000F894DEBF0FBECDBF322E232E4D8B5E8B43
:1029A0006F8B788F898F9A8F99230CF075C08DE289
:1029B0000E94431440E050E060E070E0F0E0A0E0EE
:1029C000232D219591E0121608F090E0342F321952
:1029D00081E0431708F080E0432F491B91E0341752
:1029E00008F090E0892B342F452F9D89491B91E0F9
:1029F000541708F090E0542F581B81E0451708F059
:102A000080E0982B452F562FEE895E1B81E06517DD
:102A100008F080E0652F691B91E0561708F090E000
:102A2000892B562F672F9F89691B91E0761708F035
:102A300090E0762F781B81E0671708F080E0982BF4
:102A4000672F7F2FE88D7E1BE1E0F71708F0E0E0AD
:102A5000F72FF91B9F2F81E07F1708F080E0E82B0C
:102A6000792F8A2F998D891BF1E0A81708F0F0E0E3
:102A7000982F9E1BE92F91E08E1708F090E0F92B1C
:102A800080E09A8D891B322E232E4D8B5E8B6F8BAF
:102A9000788FE98F8F1B8A8F832D8229ED898E2B6A
:102AA000FE898F2B9F89892BE88D8E2BF98D8F2B9B
:102AB0009A8D892B09F48FC0232D322D4D895E8983
:102AC0006F897E2FEF2F442455240894411C511CFC
:102AD0008E2F0F2EFAE0AF2EF02DBB24CC24DD2458
:102AE000EE24FF2400E010E00E944900E82F822F2E
:102AF000832B842B852B862B872B8E2B892B29F7D9
:102B000042010894810891089920BCF1CE010196F8
:102B10003C01680C791C232D322D4D895E896F890B
:102B2000788D898D9A8D0F2EFAE0AF2EF02DBB2473
:102B3000CC24DD24EE24FF2400E010E00E94710884
:102B4000205DF3012083232D322D4D895E896F890D
:102B5000788D898D9A8D0E944900322E232E4D8BBF
:102B60005E8B6F8B788F898F9A8F0894810891087C
:102B7000089461087108992074F64114510489F091
:102B800000E010E07E010894E11CF11CF701E00F69
:102B9000F11F80810E9443140F5F1F4F041515051C
:102BA000A8F381E06A960FB6F894DEBF0FBECDBFE2
:102BB000CF91DF911F910F91FF90EF90DF90CF9019
:102BC000BF90AF909F908F907F906F905F904F904D
:102BD0003F902F90089580E30E944314E2CFCF935B
:102BE000DF93EC018881882331F00E944314219601
:102BF00088818823D1F781E0DF91CF9108950F93E9
:102C00001F93182F482F441F4427441F81E064E07E
:102C10000E949412412F429546954695437041700B
:102C200081E062E00E949412412F429546954770E0
:102C3000417081E061E00E949412412F42954F70F3
:102C4000417081E060E00E94941280E063E040E027
:102C50000E94941280E062E041E00E94941205E03C
:102C6000802F8A95F1F780E062E040E00E949412A4
:102C700080E293E00197F1F7412F469546954695FE
:102C8000417081E064E00E949412412F4695469580
:102C9000417081E062E00E949412412F469541709C
:102CA00081E061E00E949412117081E060E0412FA8
:102CB0000E94941280E062E041E00E9494120A9522
:102CC000F1F780E062E040E00E94941280E49FE12E
:102CD0000197F1F781E01F910F9108950F931F93D2
:102CE000CF93DF9380E40E94FF15CBE6D2E003E7A9
:102CF00012E089910E944314C017D107D1F788E4EC
:102D00000E94FF15C3E7D2E00BE712E089910E9411
:102D10004314C017D107D1F780E50E94FF15CBE718
:102D2000D2E003E812E089910E944314C017D10752
:102D3000D1F788E50E94FF15C3E8D2E00BE812E066
:102D400089910E944314C017D107D1F780E60E94F1
:102D5000FF15CBE8D2E003E912E089910E94431409
:102D6000C017D107D1F788E60E94FF15C3E9D2E06A
:102D70000BE912E089910E944314C017D107D1F7E3
:102D800080E70E94FF15CBE9D2E003EA12E08991C7
:102D90000E944314C017D107D1F780E80E94FF15A5
:102DA000DF91CF911F910F9108956431A8F4813084
:102DB000A9F0813048F0823019F0833069F402C004
:102DC00094E103C094E501C090E0862F8058890FFC
:102DD0000E94FF1581E0089580E0089590E4F5CF0A
:102DE00081E00E94FF1581E008958FE00E94FF15A9
:102DF00081E008958CE00E94FF1581E0089581E054
:102E000060E041E00E94041281E061E041E00E9444
:102E1000041281E062E041E00E94041281E064E07B
:102E200041E00E94041280E063E041E00E9404124D
:102E300080E062E041E00E94041228EC30E040E9CA
:102E400051E0CA010197F1F721503040D1F783E3F7
:102E50000E94FF1582E30E94FF1588E20E94FF1581
:102E600081E00E94FF158FE00E94FF1580E49CE93D
:102E70000197F1F781E008952F923F924F925F9270
:102E80006F927F928F929F92AF92BF92CF92DF927A
:102E9000EF92FF920F931F93DF93CF9300D00F9287
:102EA000CDB7DEB79B838A8381E089830F2EF6EA54
:102EB000AF2EF2E0BF2EF02D0F2EF5E4DF2EF02D19
:102EC0000F2EF5E07F2EF02D882499240F2EF3EAA3
:102ED0002F2EF2E03F2EF02D0F2EF7E06F2EF02D6B
:102EE0000F2EF0E94F2EF1E05F2EF02D7E010894B9
:102EF000E11CF11C82E0672D40E00E949412C401A5
:102F0000880F991F880F991F8101080F191FC62C60
:102F10001BC00F5F1F4F84E0C816B1F483E063E06D
:102F2000A7010E9466138981882351F483E063E03E
:102F3000A7010E946613F501D08089818823B1F32F
:102F4000C2010197F1F719C083E06C2DA7010E941F
:102F500066138981882351F483E063E0A7010E940E
:102F60006613F801D08089818823B1F3C2010197EB
:102F7000F1F7CA94F3E0FC1560F282E0672D41E0BE
:102F80000E9494127A940894811C911C84E090E031
:102F9000A80EB91E91E0791609F0ACCFEA81FB8149
:102FA000D0820F900F900F90CF91DF911F910F91D2
:102FB000FF90EF90DF90CF90BF90AF909F908F9059
:102FC0007F906F905F904F903F902F90089582E098
:102FD00065E041E00E94041282E064E041E00E946A
:102FE000041282E063E041E00E94041282E062E0A9
:102FF00041E00E94041282E065E041E00E949412E8
:1030000082E064E041E00E94941282E063E041E0EB
:103010000E94941282E062E041E00E94941283E0F8
:1030200067E040E00E94041283E066E040E00E9416
:10303000041283E065E040E00E94041283E063E054
:1030400040E00E940412089580E064E00E9424138E
:10305000089580E064E040E00E949412089580E0CA
:1030600064E041E00E949412089580E064E041E051
:103070000E940412089582E066E00E94241381E019
:10308000089582E066E040E00E94941281E0089595
:1030900082E066E041E00E94941281E0089582E0BF
:1030A00066E041E00E94041281E0089580E065E05E
:1030B0000E94241381E0089580E065E040E00E94D2
:1030C000941281E0089580E065E041E00E9494124E
:1030D00081E0089580E065E041E00E94041281E013
:1030E000089580916A02882319F00E94541D14C02B
:1030F0008091BD02882319F00E949E1C0DC0809112
:10310000BC02882319F00E94F21C06C08091BE0206
:10311000882311F00E943A1C81E0089584EB92E02C
:103120000E94BE110E94FF160E946E160E94E717B1
:103130000E9432140E946A180E9435180E942514B9
:103140000E944F1880E060E00E94D51680E690E073
:103150000E94EF1581E062E00E94D51681E790E0C1
:103160000E94EF1583E062E00E94D51681E890E0AE
:103170000E94EF1520E23EE440E951E0CA010197C8
:10318000F1F721503040D1F70E94F01680E060E066
:103190000E94D51681E990E00E94EF1581E060E081
:1031A0000E94D51682EA90E00E94EF1582E060E06E
:1031B0000E94D51683EB90E00E94EF1583E060E05B
:1031C0000E94D51685EC90E00E94EF1520E23EE4C7
:1031D00040E951E0CA010197F1F721503040D1F7A1
:1031E0000E94F01681E008950F931F93813009F437
:1031F0004FC0813038F0823009F491C0833009F03B
:103200001BC1DAC080E06EE00E94D51606ED10E02A
:10321000C8010E94EF1583E00E94431483E00E94DE
:10322000431483E00E94431481E06EE00E94D516AF
:1032300081E00E944314C8010E94EF1583E00E94C0
:103240004314C8010E94EF1580E00E94431482E0FD
:103250006EE00E94D51681E00E944314C8010E94CE
:10326000EF1583E00E94431483E00E94431484E03E
:103270000E94431483E06EE00E94D51681E00E9414
:10328000431483E00E94431482E00E944314D4C09C
:1032900080E06EE00E94D51606ED10E0C8010E94A5
:1032A000EF1583E00E94431483E00E94431483E0FF
:1032B0000E94431481E06EE00E94D51681E00E94D6
:1032C0004314C8010E94EF1583E00E944314C80113
:1032D0000E94EF1580E00E94431482E06EE00E949D
:1032E000D51681E00E94431488ED90E00E94EF150E
:1032F00084E00E94431483E06EE00E94D51681E0D2
:103300000E94431483E00E94431485E00E9443140A
:1033100083E00E94431486E00E9443148DC080E045
:103320006EE00E94D51606ED10E0C8010E94EF1570
:1033300083E00E9443148CED90E00E94EF1583E03F
:103340000E94431481E06EE00E94D51681E00E9445
:103350004314C8010E94EF1580E00E9443148FEDD2
:1033600090E00E94EF1582E00E94431482E06EE03C
:103370000E94D51681E00E94431482EE90E00E94E4
:10338000EF1582E00E94431483E06EE00E94D516A0
:1033900081E00E94431483E00E94431487EE90E092
:1033A0000E94EF1580E00E94431483E00E944314C2
:1033B00082E00E94431440C080E06EE00E94D51677
:1033C00086ED90E00E94EF1583E00E94431483E0B5
:1033D0000E94431483E00E94431481E06EE00E9447
:1033E000D51681E00E94431488ED90E00E94EF150D
:1033F00080E00E94431482E06EE00E94D51681E0D6
:103400000E94431489EE90E00E94EF1581E00E9433
:10341000431483E06EE00E94D51681E00E944314BD
:1034200083E00E94431483E00E94431483E00E94DF
:10343000431484E00E9443141F910F9108952F922A
:103440003F924F925F926F927F928F929F92AF9234
:10345000BF92CF92DF92EF92FF920F931F93DF9371
:10346000CF9300D0CDB7DEB70E94F01680E061E0C8
:103470000E94D5168DEE90E00E94EF1581E064E089
:103480000E94D5168FEF90E00E94EF1582E063E076
:103490000E94D5168CE091E00E94EF151A821982E5
:1034A00089E692E00E943C174424552422243324C8
:1034B0003E010894611C711C0F2EF0E98F2EF1E083
:1034C0009F2EF02D49C089E692E00E943C1783E0D0
:1034D00068E00E94D51689E191E00E94EF1583E033
:1034E00068E00E94D51671018101C3010E94371462
:1034F00089819A81E80EF91E0F5F1F4F0431110573
:10350000A1F7C70164E170E00E94BF1D68517040DF
:103510002B0156944794569447945201CC24DD24B1
:10352000EE24FF248701242D3B2D4C2D5D2D6E2D87
:103530007F2D802F912F0E94B21483E06DE00E94B6
:10354000D5168FE70E94431428EE33E0C40101979B
:10355000F1F721503040D1F780916902823409F0AF
:10356000B2CF842D0E94701120ED37E040E951E088
:10357000CA010197F1F721503040D1F70F900F9019
:10358000CF91DF911F910F91FF90EF90DF90CF903F
:10359000BF90AF909F908F907F906F905F904F9073
:1035A0003F902F900895AF92BF92CF92DF92EF920B
:1035B000FF920F931F93DF93CF9300D0CDB7DEB769
:1035C0005C011A821982EE24FF2400E010E06E01F3
:1035D0000894C11CD11CC6010E942B1489819A81B8
:1035E0009695879586509140E80EF91E0F5F1F4F04
:1035F0000E31110581F7C7016EE170E00E94D31D05
:10360000862F972F8C018FEF023E180714F402EEDD
:103610001FEF8091BF02882339F1809168028823CF
:1036200099F08DEF0E94701120ED37E040E951E0F4
:10363000CA010197F1F721503040D1F70E94731170
:103640008093B902109268028091B90290E08017CD
:1036500091070CF48C0122273327281B390B021702
:1036600013072CF4890103C081E080936802F501FF
:10367000118300830F900F90CF91DF911F910F91D5
:10368000FF90EF90DF90CF90BF90AF900895809122
:10369000BA029091BB02892B39F50E94F01680E0A6
:1036A00061E00E94D5168091BF02882329F08FE146
:1036B00091E00E94EF1504C08FE291E00E94EF15A7
:1036C0008091BF0291E089278093BF028AEB92E04C
:1036D0000E94D31A24ED30E340E951E0CA0101977A
:1036E000F1F721503040D1F708959F92AF92BF92E9
:1036F000CF92DF92EF92FF920F931F93982E8091BB
:10370000BA029091BB0299232CF4AA24BB24A81AD4
:10371000B90A01C05C010E94FA1680E060E00E94D4
:10372000D5168EE391E00E94EF1580E066E00E94DE
:10373000D51688ED90E00E94EF1580E066E00E94CB
:10374000D516CC24DD24EE24FF2487012A2D3B2D21
:103750004C2D5D2D6E2D7F2D802F912F0E94B21448
:103760008091BF028823F1F080E06AE00E94D516C4
:1037700085E491E00E94EF1581E06BE00E94D51690
:10378000A090B902BB24CC24DD24EE24FF248701C1
:103790002A2D3B2D4C2D5D2D6E2D7F2D802F912FB1
:1037A0000E94B21482E060E00E94D5168AE491E0A3
:1037B0000E94EF1583E060E00E94D51689E591E054
:1037C0000E94EF1581E09816B1F0981640F082E063
:1037D000981639F183E0981609F042C032C00E9471
:1037E0005C180E9429180E941F140E94411880E052
:1037F0000E94F41835C00E945C180E9429180E948B
:1038000019140E943B182AEF30E040E951E0CA0148
:103810000197F1F721503040D1F781E00E94F41870
:103820001FC00E9463180E9429180E9419140E9448
:10383000411882E063E10E94D51682E00E94F418EC
:103840000FC00E945C180E942F180E9419140E9439
:10385000411883E063E10E94D51683E00E94F418CA
:103860001F910F91FF90EF90DF90CF90BF90AF909E
:103870009F9008950F931F93CF93DF930E94F016AC
:1038800089E692E00E943C1709E612E0CAEBD2E01A
:1038900009C083E00E94751BC8010E943C17CE013D
:1038A0000E94D31A90916902892F8454823010F0BB
:1038B000923439F42091BA023091BB0233234CF791
:1038C00007C02091BA023091BB02121613062CF0E9
:1038D00081E08093BC021092BE02903561F0913578
:1038E00028F49E34C9F09F3421F51EC0923559F05A
:1038F0009335F9F41CC0232BE1F481E080936A0234
:103900001092BE0216C0121613069CF081E080933E
:10391000BC021092BE020DC033235CF081E08093A4
:10392000BD021092BE0205C00E94471B02C00E9449
:103930001F1ADF91CF911F910F910895CF93DF93BD
:103940000E94F01689E692E00E943C17C9E6D2E098
:1039500006C082E00E94751BCE010E943C17809138
:1039600069028534B1F38E34A1F3823491F380354A
:1039700061F0813528F4843409F18F3481F52AC04F
:10398000823579F0833559F528C08091BA0290913B
:10399000BB02892B21F581E080936A021092BD025F
:1039A0001EC08091BA029091BB0218161906BCF095
:1039B00081E08093BC021092BD0211C08091BA02D6
:1039C0009091BB0299235CF081E08093BE0210923B
:1039D000BD0205C00E94471B02C00E941F1ADF9152
:1039E000CF9108950F931F93CF93DF930E94F0160A
:1039F00089E692E00E943C1709E612E0CAEBD2E0A9
:103A000009C081E00E94751BC8010E943C17CE01CD
:103A10000E94D31A90916902953421F0923511F0E9
:103A2000923441F42091BA023091BB02121613066F
:103A300044F707C02091BA023091BB021216130658
:103A40002CF481E08093BE021092BC029F3411F1ED
:103A5000903528F49434B1F09E3409F50DC09035BA
:103A600019F09335E1F419C0232BC9F481E0809358
:103A70006A021092BC0213C081E08093BD021092D2
:103A8000BC020DC033235CF081E08093BE02109233
:103A9000BC0205C00E94471B02C00E941F1ADF9192
:103AA000CF911F910F9108950F931F93CF93DF93A1
:103AB0000E94F01689E692E00E943C1709E612E0A7
:103AC000CAEBD2E00DC01092BB021092BA0280E0A5
:103AD0000E94751BC8010E943C17CE010E94D31A98
:103AE00090916902953479F3903569F3923459F3E2
:103AF0002091BA023091BB02121613062CF481E019
:103B00008093BE0210926A0233232CF481E08093EA
:103B1000BC0210926A029F3419F1903528F4943453
:103B2000B9F09E3411F50EC0923519F09335E9F4D1
:103B30001AC012161306CCF081E08093BC021092DA
:103B40006A0213C081E08093BD0210926A020DC028
:103B500033235CF081E08093BE0210926A0205C0BC
:103B60000E94471B02C00E941F1ADF91CF911F9134
:103B70000F9108950E948E180E947118FDCFAA1B04
:103B8000BB1B51E107C0AA1FBB1FA617B70710F048
:103B9000A61BB70B881F991F5A95A9F7809590957A
:103BA000BC01CD01089597FB092E07260AD077FDA9
:103BB00004D0E5DF06D000201AF4709561957F4FA0
:103BC0000895F6F7909581959F4F0895A1E21A2EDA
:103BD000AA1BBB1BFD010DC0AA1FBB1FEE1FFF1FB1
:103BE000A217B307E407F50720F0A21BB30BE40B01
:103BF000F50B661F771F881F991F1A9469F7609548
:103C00007095809590959B01AC01BD01CF01089501
:103C1000629FD001739FF001829FE00DF11D649FB0
:103C2000E00DF11D929FF00D839FF00D749FF00D3C
:103C3000659FF00D9927729FB00DE11DF91F639FDD
:103C4000B00DE11DF91FBD01CF01112408952F9280
:103C50003F924F925F926F927F928F929F92AF921C
:103C6000BF92CF92DF92EF92FF920F931F93CF9369
:103C7000DF93CDB7DEB7CA1BDB0B0FB6F894DEBF00
:103C80000FBECDBF09942A88398848885F846E8426
:103C90007D848C849B84AA84B984C884DF80EE8070
:103CA000FD800C811B81AA81B981CE0FD11D0FB679
:103CB000F894DEBF0FBECDBFED010895F894FFCF9D
:103CC000474541525F424F585F50524F4A45435417
:103CD000005E5F5E2057656C636F6D65205E5F5EA2
:103CE0000042593A204B594C49414E2054454348D3
:103CF00000416C6920456D62616279202D20393860
:103D000030005365696620536865626C202D203849
:103D100039340041686D6564204E617372202D2036
:103D20003130363900417A7A61205361656564200B
:103D30002D20393132002000202020002020007C5E
:103D40002000202E2720007C00207C2900504C459C
:103D50004153452041444A55535420565232005451
:103D60004F205345542056414C5545004C494D4930
:103D7000542053504545443A002020202020004C38
:103D8000494D4954205350454544204F4646004C28
:103D9000494D4954205350454544204F4E005350FF
:103DA0004545443A00214C494D00312954474C20A7
:103DB0004D41585350454544003229534554204DF8
:103DC00041585350454544000001020203030303D8
:103DD000040404040404040405050505050505059B
:103DE000050505050505050506060606060606067B
:103DF0000606060606060606060606060606060663
:103E0000060606060606060607070707070707074A
:103E10000707070707070707070707070707070732
:103E20000707070707070707070707070707070722
:103E30000707070707070707070707070707070712
:103E400007070707070707070808080808080808FA
:103E500008080808080808080808080808080808E2
:103E600008080808080808080808080808080808D2
:103E700008080808080808080808080808080808C2
:103E800008080808080808080808080808080808B2
:103E900008080808080808080808080808080808A2
:103EA0000808080808080808080808080808080892
:103EB0000808080808080808080808080808080882
:103EC000080808080808080801450110180C06022F
:103ED0000301010101010101010101101010101085
:103EE000101010000000000000001F010302060C6B
:103EF0001810000004040A1111111110180C060208
:103F000003011F4F534250454545524545454E45D7
:043F100045454400DF
:00000001FF
